{
  "contractName": "AuditTrail",
  "abi": [
    {
      "anonymous": false,
      "inputs": [
        {
          "indexed": true,
          "internalType": "address",
          "name": "user",
          "type": "address"
        },
        {
          "indexed": false,
          "internalType": "string",
          "name": "action",
          "type": "string"
        },
        {
          "indexed": false,
          "internalType": "uint256",
          "name": "timestamp",
          "type": "uint256"
        },
        {
          "indexed": false,
          "internalType": "string",
          "name": "details",
          "type": "string"
        }
      ],
      "name": "AuditEntryCreated",
      "type": "event"
    },
    {
      "inputs": [
        {
          "internalType": "uint256",
          "name": "",
          "type": "uint256"
        }
      ],
      "name": "auditEntries",
      "outputs": [
        {
          "internalType": "address",
          "name": "user",
          "type": "address"
        },
        {
          "internalType": "string",
          "name": "action",
          "type": "string"
        },
        {
          "internalType": "uint256",
          "name": "timestamp",
          "type": "uint256"
        },
        {
          "internalType": "string",
          "name": "details",
          "type": "string"
        }
      ],
      "stateMutability": "view",
      "type": "function",
      "constant": true
    },
    {
      "inputs": [
        {
          "internalType": "string",
          "name": "_action",
          "type": "string"
        },
        {
          "internalType": "string",
          "name": "_details",
          "type": "string"
        }
      ],
      "name": "addAuditEntry",
      "outputs": [],
      "stateMutability": "nonpayable",
      "type": "function"
    },
    {
      "inputs": [],
      "name": "getAuditEntryCount",
      "outputs": [
        {
          "internalType": "uint256",
          "name": "",
          "type": "uint256"
        }
      ],
      "stateMutability": "view",
      "type": "function",
      "constant": true
    },
    {
      "inputs": [
        {
          "internalType": "uint256",
          "name": "index",
          "type": "uint256"
        }
      ],
      "name": "getAuditEntry",
      "outputs": [
        {
          "internalType": "address",
          "name": "",
          "type": "address"
        },
        {
          "internalType": "string",
          "name": "",
          "type": "string"
        },
        {
          "internalType": "uint256",
          "name": "",
          "type": "uint256"
        },
        {
          "internalType": "string",
          "name": "",
          "type": "string"
        }
      ],
      "stateMutability": "view",
      "type": "function",
      "constant": true
    }
  ],
  "bytecode": "0x608060405234801561001057600080fd5b50610b0d806100206000396000f3fe608060405234801561001057600080fd5b506004361061004c5760003560e01c80639287018e14610051578063a61ecc621461006f578063d95a5f16146100a2578063e03687b8146100d5575b600080fd5b6100596100f1565b6040516100669190610909565b60405180910390f35b61008960048036038101906100849190610791565b6100fd565b6040516100999493929190610851565b60405180910390f35b6100bc60048036038101906100b79190610791565b61034a565b6040516100cc9493929190610851565b60405180910390f35b6100ef60048036038101906100ea9190610725565b6104ba565b005b60008080549050905090565b6000606060006060600080549050851061014c576040517f08c379a0000000000000000000000000000000000000000000000000000000008152600401610143906108e9565b60405180910390fd5b6000808681548110610187577f4e487b7100000000000000000000000000000000000000000000000000000000600052603260045260246000fd5b90600052602060002090600402016040518060800160405290816000820160009054906101000a900473ffffffffffffffffffffffffffffffffffffffff1673ffffffffffffffffffffffffffffffffffffffff1673ffffffffffffffffffffffffffffffffffffffff16815260200160018201805461020690610a1f565b80601f016020809104026020016040519081016040528092919081815260200182805461023290610a1f565b801561027f5780601f106102545761010080835404028352916020019161027f565b820191906000526020600020905b81548152906001019060200180831161026257829003601f168201915b50505050508152602001600282015481526020016003820180546102a290610a1f565b80601f01602080910402602001604051908101604052809291908181526020018280546102ce90610a1f565b801561031b5780601f106102f05761010080835404028352916020019161031b565b820191906000526020600020905b8154815290600101906020018083116102fe57829003601f168201915b505050505081525050905080600001518160200151826040015183606001519450945094509450509193509193565b6000818154811061035a57600080fd5b90600052602060002090600402016000915090508060000160009054906101000a900473ffffffffffffffffffffffffffffffffffffffff16908060010180546103a390610a1f565b80601f01602080910402602001604051908101604052809291908181526020018280546103cf90610a1f565b801561041c5780601f106103f15761010080835404028352916020019161041c565b820191906000526020600020905b8154815290600101906020018083116103ff57829003601f168201915b50505050509080600201549080600301805461043790610a1f565b80601f016020809104026020016040519081016040528092919081815260200182805461046390610a1f565b80156104b05780601f10610485576101008083540402835291602001916104b0565b820191906000526020600020905b81548152906001019060200180831161049357829003601f168201915b5050505050905084565b600060405180608001604052803373ffffffffffffffffffffffffffffffffffffffff168152602001848152602001428152602001838152509050600081908060018154018082558091505060019003906000526020600020906004020160009091909190915060008201518160000160006101000a81548173ffffffffffffffffffffffffffffffffffffffff021916908373ffffffffffffffffffffffffffffffffffffffff1602179055506020820151816001019080519060200190610584929190610605565b506040820151816002015560608201518160030190805190602001906105ab929190610605565b5050503373ffffffffffffffffffffffffffffffffffffffff167f3ed202035e929f73014a65f030d719b0415f159fc49e75aab350bccfcc4365278442856040516105f8939291906108a4565b60405180910390a2505050565b82805461061190610a1f565b90600052602060002090601f016020900481019282610633576000855561067a565b82601f1061064c57805160ff191683800117855561067a565b8280016001018555821561067a579182015b8281111561067957825182559160200191906001019061065e565b5b509050610687919061068b565b5090565b5b808211156106a457600081600090555060010161068c565b5090565b60006106bb6106b684610955565b610924565b9050828152602081018484840111156106d357600080fd5b6106de8482856109dd565b509392505050565b600082601f8301126106f757600080fd5b81356107078482602086016106a8565b91505092915050565b60008135905061071f81610ac0565b92915050565b6000806040838503121561073857600080fd5b600083013567ffffffffffffffff81111561075257600080fd5b61075e858286016106e6565b925050602083013567ffffffffffffffff81111561077b57600080fd5b610787858286016106e6565b9150509250929050565b6000602082840312156107a357600080fd5b60006107b184828501610710565b91505092915050565b6107c3816109a1565b82525050565b60006107d482610985565b6107de8185610990565b93506107ee8185602086016109ec565b6107f781610aaf565b840191505092915050565b600061080f600d83610990565b91507f496e76616c696420696e646578000000000000000000000000000000000000006000830152602082019050919050565b61084b816109d3565b82525050565b600060808201905061086660008301876107ba565b818103602083015261087881866107c9565b90506108876040830185610842565b818103606083015261089981846107c9565b905095945050505050565b600060608201905081810360008301526108be81866107c9565b90506108cd6020830185610842565b81810360408301526108df81846107c9565b9050949350505050565b6000602082019050818103600083015261090281610802565b9050919050565b600060208201905061091e6000830184610842565b92915050565b6000604051905081810181811067ffffffffffffffff8211171561094b5761094a610a80565b5b8060405250919050565b600067ffffffffffffffff8211156109705761096f610a80565b5b601f19601f8301169050602081019050919050565b600081519050919050565b600082825260208201905092915050565b60006109ac826109b3565b9050919050565b600073ffffffffffffffffffffffffffffffffffffffff82169050919050565b6000819050919050565b82818337600083830152505050565b60005b83811015610a0a5780820151818401526020810190506109ef565b83811115610a19576000848401525b50505050565b60006002820490506001821680610a3757607f821691505b60208210811415610a4b57610a4a610a51565b5b50919050565b7f4e487b7100000000000000000000000000000000000000000000000000000000600052602260045260246000fd5b7f4e487b7100000000000000000000000000000000000000000000000000000000600052604160045260246000fd5b6000601f19601f8301169050919050565b610ac9816109d3565b8114610ad457600080fd5b5056fea26469706673582212201d91ca5e6b62c870360540127a1469a45ad2527ff3b64b25294ab415ba85e4ad64736f6c63430008000033",
  "immutableReferences": {},
  "source": "// SPDX-License-Identifier: MIT\npragma solidity ^0.8.0;\n\ncontract AuditTrail {\n    struct AuditEntry {\n        address user;\n        string action;\n        uint256 timestamp;\n        string details;\n    }\n\n    AuditEntry[] public auditEntries;\n\n    event AuditEntryCreated(address indexed user, string action, uint256 timestamp, string details);\n\n    function addAuditEntry(string memory _action, string memory _details) public {\n        AuditEntry memory newEntry = AuditEntry({\n            user: msg.sender,\n            action: _action,\n            timestamp: block.timestamp,\n            details: _details\n        });\n        auditEntries.push(newEntry);\n        emit AuditEntryCreated(msg.sender, _action, block.timestamp, _details);\n    }\n\n    function getAuditEntryCount() public view returns (uint256) {\n        return auditEntries.length;\n    }\n\n    function getAuditEntry(uint256 index) public view returns (address, string memory, uint256, string memory) {\n        require(index < auditEntries.length, \"Invalid index\");\n        AuditEntry memory entry = auditEntries[index];\n        return (entry.user, entry.action, entry.timestamp, entry.details);\n    }\n}\n",
  "sourcePath": "/Users/devx/Projects/fyp/Audit-Trail/contracts/AuditTrail.sol",
  "compiler": {
    "name": "solc",
    "version": "0.8.0+commit.c7dfd78e.Emscripten.clang"
  },
  "schemaVersion": "3.4.16",
  "updatedAt": "2024-09-02T16:59:12.827Z",
  "networkType": "ethereum",
  "devdoc": {
    "kind": "dev",
    "methods": {},
    "version": 1
  },
  "userdoc": {
    "kind": "user",
    "methods": {},
    "version": 1
  }
}